{
  "_format": "hh-sol-artifact-1",
  "contractName": "VoterVerification",
  "sourceName": "contracts/VoterVerification.sol",
  "abi": [
    {
      "anonymous": false,
      "inputs": [
        {
          "indexed": true,
          "internalType": "address",
          "name": "voter",
          "type": "address"
        },
        {
          "indexed": false,
          "internalType": "string",
          "name": "imageHash",
          "type": "string"
        }
      ],
      "name": "VerificationInvalidated",
      "type": "event"
    },
    {
      "anonymous": false,
      "inputs": [
        {
          "indexed": true,
          "internalType": "address",
          "name": "voter",
          "type": "address"
        },
        {
          "indexed": false,
          "internalType": "string",
          "name": "imageHash",
          "type": "string"
        },
        {
          "indexed": false,
          "internalType": "uint256",
          "name": "timestamp",
          "type": "uint256"
        },
        {
          "indexed": false,
          "internalType": "bool",
          "name": "faceDetected",
          "type": "bool"
        },
        {
          "indexed": false,
          "internalType": "uint256",
          "name": "confidence",
          "type": "uint256"
        }
      ],
      "name": "VerificationStored",
      "type": "event"
    },
    {
      "inputs": [
        {
          "internalType": "address",
          "name": "_voter",
          "type": "address"
        }
      ],
      "name": "getVerification",
      "outputs": [
        {
          "internalType": "string",
          "name": "imageHash",
          "type": "string"
        },
        {
          "internalType": "uint256",
          "name": "timestamp",
          "type": "uint256"
        },
        {
          "internalType": "bool",
          "name": "faceDetected",
          "type": "bool"
        },
        {
          "internalType": "uint256",
          "name": "confidence",
          "type": "uint256"
        },
        {
          "internalType": "bool",
          "name": "isValid",
          "type": "bool"
        }
      ],
      "stateMutability": "view",
      "type": "function"
    },
    {
      "inputs": [
        {
          "internalType": "address",
          "name": "_voter",
          "type": "address"
        }
      ],
      "name": "invalidateVerification",
      "outputs": [],
      "stateMutability": "nonpayable",
      "type": "function"
    },
    {
      "inputs": [
        {
          "internalType": "address",
          "name": "_voter",
          "type": "address"
        }
      ],
      "name": "isVerified",
      "outputs": [
        {
          "internalType": "bool",
          "name": "",
          "type": "bool"
        }
      ],
      "stateMutability": "view",
      "type": "function"
    },
    {
      "inputs": [
        {
          "internalType": "string",
          "name": "_imageHash",
          "type": "string"
        },
        {
          "internalType": "uint256",
          "name": "_timestamp",
          "type": "uint256"
        },
        {
          "internalType": "bool",
          "name": "_faceDetected",
          "type": "bool"
        },
        {
          "internalType": "uint256",
          "name": "_confidence",
          "type": "uint256"
        }
      ],
      "name": "storeVerification",
      "outputs": [],
      "stateMutability": "nonpayable",
      "type": "function"
    },
    {
      "inputs": [
        {
          "internalType": "string",
          "name": "",
          "type": "string"
        }
      ],
      "name": "usedImageHashes",
      "outputs": [
        {
          "internalType": "bool",
          "name": "",
          "type": "bool"
        }
      ],
      "stateMutability": "view",
      "type": "function"
    },
    {
      "inputs": [
        {
          "internalType": "address",
          "name": "",
          "type": "address"
        }
      ],
      "name": "verifications",
      "outputs": [
        {
          "internalType": "string",
          "name": "imageHash",
          "type": "string"
        },
        {
          "internalType": "uint256",
          "name": "timestamp",
          "type": "uint256"
        },
        {
          "internalType": "bool",
          "name": "faceDetected",
          "type": "bool"
        },
        {
          "internalType": "uint256",
          "name": "confidence",
          "type": "uint256"
        },
        {
          "internalType": "bool",
          "name": "isValid",
          "type": "bool"
        }
      ],
      "stateMutability": "view",
      "type": "function"
    }
  ],
  "bytecode": "0x608060405234801561001057600080fd5b50610af9806100206000396000f3fe608060405234801561001057600080fd5b50600436106100625760003560e01c8063080c98da1461006757806327c17d3e146100945780637fc9592d146100d2578063b9209e33146100e5578063f472115c14610114578063f6e61ccd14610129575b600080fd5b61007a61007536600461071d565b61013c565b60405161008b95949392919061079d565b60405180910390f35b6100c26100a2366004610879565b805160208183018101805160018252928201919093012091525460ff1681565b604051901515815260200161008b565b61007a6100e036600461071d565b6101f8565b6100c26100f336600461071d565b6001600160a01b031660009081526020819052604090206004015460ff1690565b61012761012236600461071d565b61032a565b005b6101276101373660046108b6565b61050b565b6000602081905290815260409020805481906101579061091c565b80601f01602080910402602001604051908101604052809291908181526020018280546101839061091c565b80156101d05780601f106101a5576101008083540402835291602001916101d0565b820191906000526020600020905b8154815290600101906020018083116101b357829003601f168201915b505050506001830154600284015460038501546004909501549394919360ff91821693501685565b60606000806000806000806000886001600160a01b03166001600160a01b031681526020019081526020016000206040518060a00160405290816000820180546102419061091c565b80601f016020809104026020016040519081016040528092919081815260200182805461026d9061091c565b80156102ba5780601f1061028f576101008083540402835291602001916102ba565b820191906000526020600020905b81548152906001019060200180831161029d57829003601f168201915b50505091835250506001820154602080830191909152600283015460ff90811615156040808501919091526003850154606080860191909152600490950154909116151560809384015284519185015190850151938501519490920151909b919a50919850919650945092505050565b336001600160a01b0382161461039c5760405162461bcd60e51b815260206004820152602c60248201527f4f6e6c7920766f7465722063616e20696e76616c69646174652074686569722060448201526b3b32b934b334b1b0ba34b7b760a11b60648201526084015b60405180910390fd5b6001600160a01b03811660009081526020819052604090206004015460ff166104075760405162461bcd60e51b815260206004820152601c60248201527f566572696669636174696f6e20616c726561647920696e76616c6964000000006044820152606401610393565b6001600160a01b0381166000908152602081905260408120805461042a9061091c565b80601f01602080910402602001604051908101604052809291908181526020018280546104569061091c565b80156104a35780601f10610478576101008083540402835291602001916104a3565b820191906000526020600020905b81548152906001019060200180831161048657829003601f168201915b5050506001600160a01b03851660008181526020819052604090819020600401805460ff1916905551939450927fb4483ab01f855b3596067729a50f6cdd944af9281d7fcff4fcd279c7f7409cf492506104ff91508490610956565b60405180910390a25050565b60018460405161051b9190610969565b9081526040519081900360200190205460ff161561057b5760405162461bcd60e51b815260206004820152601760248201527f496d616765206861736820616c726561647920757365640000000000000000006044820152606401610393565b816105c85760405162461bcd60e51b815260206004820152601a60248201527f46616365206e6f7420646574656374656420696e20696d6167650000000000006044820152606401610393565b60328110156106195760405162461bcd60e51b815260206004820152601860248201527f436f6e666964656e63652073636f726520746f6f206c6f7700000000000000006044820152606401610393565b6040805160a081018252858152602080820186905284151582840152606082018490526001608083015233600090815290819052919091208151819061065f90826109d4565b50602082015160018083019190915560408084015160028401805491151560ff19928316179055606085015160038501556080909401516004909301805493151593909416929092179092555181906106b9908790610969565b908152604051908190036020018120805492151560ff199093169290921790915533907f522cc68e31c526d23a3829475408c404ebf3620ddff89a7afb585cd6554659009061070f908790879087908790610a94565b60405180910390a250505050565b60006020828403121561072f57600080fd5b81356001600160a01b038116811461074657600080fd5b9392505050565b60005b83811015610768578181015183820152602001610750565b50506000910152565b6000815180845261078981602086016020860161074d565b601f01601f19169290920160200192915050565b60a0815260006107b060a0830188610771565b602083019690965250921515604084015260608301919091521515608090910152919050565b634e487b7160e01b600052604160045260246000fd5b600082601f8301126107fd57600080fd5b813567ffffffffffffffff80821115610818576108186107d6565b604051601f8301601f19908116603f01168101908282118183101715610840576108406107d6565b8160405283815286602085880101111561085957600080fd5b836020870160208301376000602085830101528094505050505092915050565b60006020828403121561088b57600080fd5b813567ffffffffffffffff8111156108a257600080fd5b6108ae848285016107ec565b949350505050565b600080600080608085870312156108cc57600080fd5b843567ffffffffffffffff8111156108e357600080fd5b6108ef878288016107ec565b945050602085013592506040850135801515811461090c57600080fd5b9396929550929360600135925050565b600181811c9082168061093057607f821691505b60208210810361095057634e487b7160e01b600052602260045260246000fd5b50919050565b6020815260006107466020830184610771565b6000825161097b81846020870161074d565b9190910192915050565b601f8211156109cf57600081815260208120601f850160051c810160208610156109ac5750805b601f850160051c820191505b818110156109cb578281556001016109b8565b5050505b505050565b815167ffffffffffffffff8111156109ee576109ee6107d6565b610a02816109fc845461091c565b84610985565b602080601f831160018114610a375760008415610a1f5750858301515b600019600386901b1c1916600185901b1785556109cb565b600085815260208120601f198616915b82811015610a6657888601518255948401946001909101908401610a47565b5085821015610a845787850151600019600388901b60f8161c191681555b5050505050600190811b01905550565b608081526000610aa76080830187610771565b602083019590955250911515604083015260609091015291905056fea264697066735822122027c26c9ac8f3c6109ff230ca1f5d191f42a5d56be23db5c1037148a95763cfe364736f6c63430008140033",
  "linkReferences": {},
  "deployedLinkReferences": {}
}