{
  "_format": "hh-sol-artifact-1",
  "contractName": "VoteVerification",
  "sourceName": "contracts/VoteVerification.sol",
  "abi": [
    {
      "inputs": [
        {
          "internalType": "address",
          "name": "initialVerifier",
          "type": "address"
        }
      ],
      "stateMutability": "nonpayable",
      "type": "constructor"
    },
    {
      "anonymous": false,
      "inputs": [
        {
          "indexed": true,
          "internalType": "uint256",
          "name": "electionId",
          "type": "uint256"
        },
        {
          "indexed": false,
          "internalType": "string",
          "name": "name",
          "type": "string"
        },
        {
          "indexed": false,
          "internalType": "uint256",
          "name": "startTime",
          "type": "uint256"
        },
        {
          "indexed": false,
          "internalType": "uint256",
          "name": "endTime",
          "type": "uint256"
        }
      ],
      "name": "ElectionCreated",
      "type": "event"
    },
    {
      "anonymous": false,
      "inputs": [
        {
          "indexed": true,
          "internalType": "uint256",
          "name": "electionId",
          "type": "uint256"
        },
        {
          "indexed": false,
          "internalType": "uint256",
          "name": "totalVerifiedVotes",
          "type": "uint256"
        }
      ],
      "name": "ElectionEnded",
      "type": "event"
    },
    {
      "anonymous": false,
      "inputs": [
        {
          "indexed": false,
          "internalType": "address",
          "name": "account",
          "type": "address"
        }
      ],
      "name": "Paused",
      "type": "event"
    },
    {
      "anonymous": false,
      "inputs": [
        {
          "indexed": true,
          "internalType": "bytes32",
          "name": "role",
          "type": "bytes32"
        },
        {
          "indexed": true,
          "internalType": "bytes32",
          "name": "previousAdminRole",
          "type": "bytes32"
        },
        {
          "indexed": true,
          "internalType": "bytes32",
          "name": "newAdminRole",
          "type": "bytes32"
        }
      ],
      "name": "RoleAdminChanged",
      "type": "event"
    },
    {
      "anonymous": false,
      "inputs": [
        {
          "indexed": true,
          "internalType": "bytes32",
          "name": "role",
          "type": "bytes32"
        },
        {
          "indexed": true,
          "internalType": "address",
          "name": "account",
          "type": "address"
        },
        {
          "indexed": true,
          "internalType": "address",
          "name": "sender",
          "type": "address"
        }
      ],
      "name": "RoleGranted",
      "type": "event"
    },
    {
      "anonymous": false,
      "inputs": [
        {
          "indexed": true,
          "internalType": "bytes32",
          "name": "role",
          "type": "bytes32"
        },
        {
          "indexed": true,
          "internalType": "address",
          "name": "account",
          "type": "address"
        },
        {
          "indexed": true,
          "internalType": "address",
          "name": "sender",
          "type": "address"
        }
      ],
      "name": "RoleRevoked",
      "type": "event"
    },
    {
      "anonymous": false,
      "inputs": [
        {
          "indexed": false,
          "internalType": "address",
          "name": "account",
          "type": "address"
        }
      ],
      "name": "Unpaused",
      "type": "event"
    },
    {
      "anonymous": false,
      "inputs": [
        {
          "indexed": true,
          "internalType": "bytes32",
          "name": "voteId",
          "type": "bytes32"
        },
        {
          "indexed": true,
          "internalType": "address",
          "name": "voter",
          "type": "address"
        },
        {
          "indexed": false,
          "internalType": "uint256",
          "name": "electionId",
          "type": "uint256"
        },
        {
          "indexed": false,
          "internalType": "uint256",
          "name": "timestamp",
          "type": "uint256"
        }
      ],
      "name": "VoteVerified",
      "type": "event"
    },
    {
      "inputs": [],
      "name": "DEFAULT_ADMIN_ROLE",
      "outputs": [
        {
          "internalType": "bytes32",
          "name": "",
          "type": "bytes32"
        }
      ],
      "stateMutability": "view",
      "type": "function"
    },
    {
      "inputs": [],
      "name": "PAUSER_ROLE",
      "outputs": [
        {
          "internalType": "bytes32",
          "name": "",
          "type": "bytes32"
        }
      ],
      "stateMutability": "view",
      "type": "function"
    },
    {
      "inputs": [],
      "name": "VERIFIER_ROLE",
      "outputs": [
        {
          "internalType": "bytes32",
          "name": "",
          "type": "bytes32"
        }
      ],
      "stateMutability": "view",
      "type": "function"
    },
    {
      "inputs": [
        {
          "internalType": "string",
          "name": "name",
          "type": "string"
        },
        {
          "internalType": "uint256",
          "name": "startTime",
          "type": "uint256"
        },
        {
          "internalType": "uint256",
          "name": "endTime",
          "type": "uint256"
        },
        {
          "internalType": "bytes32",
          "name": "dataHash",
          "type": "bytes32"
        }
      ],
      "name": "createElection",
      "outputs": [],
      "stateMutability": "nonpayable",
      "type": "function"
    },
    {
      "inputs": [],
      "name": "electionCounter",
      "outputs": [
        {
          "internalType": "uint256",
          "name": "",
          "type": "uint256"
        }
      ],
      "stateMutability": "view",
      "type": "function"
    },
    {
      "inputs": [
        {
          "internalType": "uint256",
          "name": "",
          "type": "uint256"
        }
      ],
      "name": "elections",
      "outputs": [
        {
          "internalType": "string",
          "name": "name",
          "type": "string"
        },
        {
          "internalType": "uint256",
          "name": "startTime",
          "type": "uint256"
        },
        {
          "internalType": "uint256",
          "name": "endTime",
          "type": "uint256"
        },
        {
          "internalType": "bool",
          "name": "active",
          "type": "bool"
        },
        {
          "internalType": "uint256",
          "name": "verifiedVotes",
          "type": "uint256"
        },
        {
          "internalType": "bytes32",
          "name": "dataHash",
          "type": "bytes32"
        }
      ],
      "stateMutability": "view",
      "type": "function"
    },
    {
      "inputs": [
        {
          "internalType": "uint256",
          "name": "electionId",
          "type": "uint256"
        }
      ],
      "name": "endElection",
      "outputs": [],
      "stateMutability": "nonpayable",
      "type": "function"
    },
    {
      "inputs": [
        {
          "internalType": "bytes32",
          "name": "role",
          "type": "bytes32"
        }
      ],
      "name": "getRoleAdmin",
      "outputs": [
        {
          "internalType": "bytes32",
          "name": "",
          "type": "bytes32"
        }
      ],
      "stateMutability": "view",
      "type": "function"
    },
    {
      "inputs": [
        {
          "internalType": "bytes32",
          "name": "role",
          "type": "bytes32"
        },
        {
          "internalType": "address",
          "name": "account",
          "type": "address"
        }
      ],
      "name": "grantRole",
      "outputs": [],
      "stateMutability": "nonpayable",
      "type": "function"
    },
    {
      "inputs": [
        {
          "internalType": "bytes32",
          "name": "role",
          "type": "bytes32"
        },
        {
          "internalType": "address",
          "name": "account",
          "type": "address"
        }
      ],
      "name": "hasRole",
      "outputs": [
        {
          "internalType": "bool",
          "name": "",
          "type": "bool"
        }
      ],
      "stateMutability": "view",
      "type": "function"
    },
    {
      "inputs": [
        {
          "internalType": "address",
          "name": "",
          "type": "address"
        },
        {
          "internalType": "uint256",
          "name": "",
          "type": "uint256"
        }
      ],
      "name": "hasVoted",
      "outputs": [
        {
          "internalType": "bool",
          "name": "",
          "type": "bool"
        }
      ],
      "stateMutability": "view",
      "type": "function"
    },
    {
      "inputs": [],
      "name": "pause",
      "outputs": [],
      "stateMutability": "nonpayable",
      "type": "function"
    },
    {
      "inputs": [],
      "name": "paused",
      "outputs": [
        {
          "internalType": "bool",
          "name": "",
          "type": "bool"
        }
      ],
      "stateMutability": "view",
      "type": "function"
    },
    {
      "inputs": [
        {
          "internalType": "bytes32",
          "name": "role",
          "type": "bytes32"
        },
        {
          "internalType": "address",
          "name": "account",
          "type": "address"
        }
      ],
      "name": "renounceRole",
      "outputs": [],
      "stateMutability": "nonpayable",
      "type": "function"
    },
    {
      "inputs": [
        {
          "internalType": "bytes32",
          "name": "role",
          "type": "bytes32"
        },
        {
          "internalType": "address",
          "name": "account",
          "type": "address"
        }
      ],
      "name": "revokeRole",
      "outputs": [],
      "stateMutability": "nonpayable",
      "type": "function"
    },
    {
      "inputs": [
        {
          "internalType": "address",
          "name": "newSigner",
          "type": "address"
        }
      ],
      "name": "setVerificationSigner",
      "outputs": [],
      "stateMutability": "nonpayable",
      "type": "function"
    },
    {
      "inputs": [
        {
          "internalType": "bytes4",
          "name": "interfaceId",
          "type": "bytes4"
        }
      ],
      "name": "supportsInterface",
      "outputs": [
        {
          "internalType": "bool",
          "name": "",
          "type": "bool"
        }
      ],
      "stateMutability": "view",
      "type": "function"
    },
    {
      "inputs": [],
      "name": "unpause",
      "outputs": [],
      "stateMutability": "nonpayable",
      "type": "function"
    },
    {
      "inputs": [],
      "name": "verificationSigner",
      "outputs": [
        {
          "internalType": "address",
          "name": "",
          "type": "address"
        }
      ],
      "stateMutability": "view",
      "type": "function"
    },
    {
      "inputs": [
        {
          "internalType": "address",
          "name": "voter",
          "type": "address"
        },
        {
          "internalType": "uint256",
          "name": "electionId",
          "type": "uint256"
        },
        {
          "internalType": "bytes32",
          "name": "proofHash",
          "type": "bytes32"
        },
        {
          "internalType": "bytes",
          "name": "signature",
          "type": "bytes"
        }
      ],
      "name": "verifyVote",
      "outputs": [],
      "stateMutability": "nonpayable",
      "type": "function"
    },
    {
      "inputs": [
        {
          "internalType": "bytes32",
          "name": "",
          "type": "bytes32"
        }
      ],
      "name": "voteRecords",
      "outputs": [
        {
          "internalType": "address",
          "name": "voter",
          "type": "address"
        },
        {
          "internalType": "uint256",
          "name": "timestamp",
          "type": "uint256"
        },
        {
          "internalType": "bytes32",
          "name": "proofHash",
          "type": "bytes32"
        }
      ],
      "stateMutability": "view",
      "type": "function"
    }
  ],
  "bytecode": "0x60806040523480156200001157600080fd5b5060405162001a5438038062001a5483398101604081905262000034916200016a565b6001805460ff191690556200004b600033620000c9565b620000777f0ce23c3e399818cfee81a7ab0880f714e53d7672b08df0fa62f2843416e1ea0982620000c9565b620000a37f65d7a28e3265b37a6474929f336521b332c1681b933f6cb9f3376673440d862a33620000c9565b600680546001600160a01b0319166001600160a01b03929092169190911790556200019c565b6000828152602081815260408083206001600160a01b038516845290915290205460ff1662000166576000828152602081815260408083206001600160a01b03851684529091529020805460ff19166001179055620001253390565b6001600160a01b0316816001600160a01b0316837f2f8788117e7eff1d82e926ec794901d17c78024a50270940304540a733656f0d60405160405180910390a45b5050565b6000602082840312156200017d57600080fd5b81516001600160a01b03811681146200019557600080fd5b9392505050565b6118a880620001ac6000396000f3fe608060405234801561001057600080fd5b50600436106101375760003560e01c806361e37417116100b85780639c98bcbb1161007c5780639c98bcbb146102de578063a217fddf146102f1578063ba92c799146102f9578063d547741f14610324578063e63ab1e914610337578063e7705db61461035e57600080fd5b806361e374171461024957806371364b8b1461025257806379916eb4146102655780638456cb59146102c357806391d14854146102cb57600080fd5b80633f4ba83a116100ff5780633f4ba83a146101d057806342545825146101d85780635b02c137146102065780635c975abb146102195780635e6fef011461022457600080fd5b806301ffc9a71461013c578063181c020714610164578063248a9ca3146101795780632f2ff15d146101aa57806336568abe146101bd575b600080fd5b61014f61014a36600461131c565b610385565b60405190151581526020015b60405180910390f35b6101776101723660046113ee565b6103bc565b005b61019c610187366004611463565b60009081526020819052604090206001015490565b60405190815260200161015b565b6101776101b836600461147c565b61074c565b6101776101cb36600461147c565b610776565b6101776107f4565b61014f6101e63660046114a8565b600460209081526000928352604080842090915290825290205460ff1681565b6101776102143660046114d2565b610829565b60015460ff1661014f565b610237610232366004611463565b6109ea565b60405161015b9695949392919061158a565b61019c60055481565b6101776102603660046115c6565b610aaa565b61029e610273366004611463565b6003602052600090815260409020805460018201546002909201546001600160a01b03909116919083565b604080516001600160a01b03909416845260208401929092529082015260600161015b565b610177610b27565b61014f6102d936600461147c565b610b59565b6101776102ec366004611463565b610b82565b61019c600081565b60065461030c906001600160a01b031681565b6040516001600160a01b03909116815260200161015b565b61017761033236600461147c565b610c61565b61019c7f65d7a28e3265b37a6474929f336521b332c1681b933f6cb9f3376673440d862a81565b61019c7f0ce23c3e399818cfee81a7ab0880f714e53d7672b08df0fa62f2843416e1ea0981565b60006001600160e01b03198216637965db0b60e01b14806103b657506301ffc9a760e01b6001600160e01b03198316145b92915050565b6103c4610c86565b6040516bffffffffffffffffffffffff19606086901b16602082015260348101849052605481018390526000906074016040516020818303038152906040528051906020012090506000610445827f19457468657265756d205369676e6564204d6573736167653a0a3332000000006000908152601c91909152603c902090565b905060006104538285610cce565b6006549091506001600160a01b038083169116146104ac5760405162461bcd60e51b8152602060048201526011602482015270496e76616c6964207369676e617475726560781b60448201526064015b60405180910390fd5b60008681526002602052604090206003015460ff166105035760405162461bcd60e51b8152602060048201526013602482015272456c656374696f6e206e6f742061637469766560681b60448201526064016104a3565b60008681526002602052604090206001015442101561055b5760405162461bcd60e51b8152602060048201526014602482015273115b1958dd1a5bdb881b9bdd081cdd185c9d195960621b60448201526064016104a3565b600086815260026020819052604090912001544211156105ae5760405162461bcd60e51b815260206004820152600e60248201526d115b1958dd1a5bdb88195b99195960921b60448201526064016104a3565b6001600160a01b038716600090815260046020908152604080832089845290915290205460ff16156106225760405162461bcd60e51b815260206004820152601e60248201527f416c726561647920766f74656420696e207468697320656c656374696f6e000060448201526064016104a3565b6040516bffffffffffffffffffffffff19606089901b1660208201526034810187905242605482015260009060740160408051808303601f1901815282825280516020918201206060840183526001600160a01b038c8116808652428487019081528686018d8152600085815260038752878120985189546001600160a01b03191695169490941788559051600180890191909155905160029788015590825260048085528583208e84528552858320805460ff191690921790915594909252918120909201805491935090916106f8836115f7565b9091555050604080518881524260208201526001600160a01b038a169183917f8b4fab8f81df1e31d849ae7d6b3f94ef1dc7227cfe25c5d2ed69386e206c9d33910160405180910390a35050505050505050565b60008281526020819052604090206001015461076781610cf2565b6107718383610cfc565b505050565b6001600160a01b03811633146107e65760405162461bcd60e51b815260206004820152602f60248201527f416363657373436f6e74726f6c3a2063616e206f6e6c792072656e6f756e636560448201526e103937b632b9903337b91039b2b63360891b60648201526084016104a3565b6107f08282610d80565b5050565b7f65d7a28e3265b37a6474929f336521b332c1681b933f6cb9f3376673440d862a61081e81610cf2565b610826610de5565b50565b7f0ce23c3e399818cfee81a7ab0880f714e53d7672b08df0fa62f2843416e1ea0961085381610cf2565b8284106108ad5760405162461bcd60e51b815260206004820152602260248201527f53746172742074696d65206d757374206265206265666f726520656e642074696044820152616d6560f01b60648201526084016104a3565b4283116108fc5760405162461bcd60e51b815260206004820152601e60248201527f456e642074696d65206d75737420626520696e2074686520667574757265000060448201526064016104a3565b600580546000918261090d836115f7565b909155506040805160c08101825288815260208082018990528183018890526001606083015260006080830181905260a083018890528481526002909152919091208151929350909181906109629082611698565b50602082015160018201556040808301516002830155606083015160038301805460ff19169115159190911790556080830151600483015560a0909201516005909101555181907fe7a0aae5d733e07e246dea86213a1ac1b0aa8554bde889bb75c12752f44e53d9906109da90899089908990611758565b60405180910390a2505050505050565b600260205260009081526040902080548190610a0590611610565b80601f0160208091040260200160405190810160405280929190818152602001828054610a3190611610565b8015610a7e5780601f10610a5357610100808354040283529160200191610a7e565b820191906000526020600020905b815481529060010190602001808311610a6157829003601f168201915b50505060018401546002850154600386015460048701546005909701549596929591945060ff16925086565b6000610ab581610cf2565b6001600160a01b038216610b045760405162461bcd60e51b8152602060048201526016602482015275496e76616c6964207369676e6572206164647265737360501b60448201526064016104a3565b50600680546001600160a01b0319166001600160a01b0392909216919091179055565b7f65d7a28e3265b37a6474929f336521b332c1681b933f6cb9f3376673440d862a610b5181610cf2565b610826610e37565b6000918252602082815260408084206001600160a01b0393909316845291905290205460ff1690565b7f0ce23c3e399818cfee81a7ab0880f714e53d7672b08df0fa62f2843416e1ea09610bac81610cf2565b60008281526002602052604090206003015460ff16610c035760405162461bcd60e51b8152602060048201526013602482015272456c656374696f6e206e6f742061637469766560681b60448201526064016104a3565b6000828152600260205260409081902060038101805460ff1916905560040154905183917f32e2c12037f9600b91a766ce53eab6909f3bdb865851cd9a8c7fafbdf249a9ce91610c5591815260200190565b60405180910390a25050565b600082815260208190526040902060010154610c7c81610cf2565b6107718383610d80565b60015460ff1615610ccc5760405162461bcd60e51b815260206004820152601060248201526f14185d5cd8589b194e881c185d5cd95960821b60448201526064016104a3565b565b6000806000610cdd8585610e72565b91509150610cea81610eb7565b509392505050565b6108268133611001565b610d068282610b59565b6107f0576000828152602081815260408083206001600160a01b03851684529091529020805460ff19166001179055610d3c3390565b6001600160a01b0316816001600160a01b0316837f2f8788117e7eff1d82e926ec794901d17c78024a50270940304540a733656f0d60405160405180910390a45050565b610d8a8282610b59565b156107f0576000828152602081815260408083206001600160a01b0385168085529252808320805460ff1916905551339285917ff6391f5c32d9c69d2a47ea670b442974b53935d1edc7fd64eb21e047a839171b9190a45050565b610ded61105a565b6001805460ff191690557f5db9ee0a495bf2e6ff9c91a7834c1ba4fdd244a5e8aa4e537bd38aeae4b073aa335b6040516001600160a01b03909116815260200160405180910390a1565b610e3f610c86565b6001805460ff1916811790557f62e78cea01bee320cd4e420270b5ea74000d11b0c9f74754ebdbfc544b05a25833610e1a565b6000808251604103610ea85760208301516040840151606085015160001a610e9c878285856110a3565b94509450505050610eb0565b506000905060025b9250929050565b6000816004811115610ecb57610ecb61177d565b03610ed35750565b6001816004811115610ee757610ee761177d565b03610f345760405162461bcd60e51b815260206004820152601860248201527f45434453413a20696e76616c6964207369676e6174757265000000000000000060448201526064016104a3565b6002816004811115610f4857610f4861177d565b03610f955760405162461bcd60e51b815260206004820152601f60248201527f45434453413a20696e76616c6964207369676e6174757265206c656e6774680060448201526064016104a3565b6003816004811115610fa957610fa961177d565b036108265760405162461bcd60e51b815260206004820152602260248201527f45434453413a20696e76616c6964207369676e6174757265202773272076616c604482015261756560f01b60648201526084016104a3565b61100b8282610b59565b6107f05761101881611167565b611023836020611179565b604051602001611034929190611793565b60408051601f198184030181529082905262461bcd60e51b82526104a391600401611808565b60015460ff16610ccc5760405162461bcd60e51b815260206004820152601460248201527314185d5cd8589b194e881b9bdd081c185d5cd95960621b60448201526064016104a3565b6000807f7fffffffffffffffffffffffffffffff5d576e7357a4501ddfe92f46681b20a08311156110da575060009050600361115e565b6040805160008082526020820180845289905260ff881692820192909252606081018690526080810185905260019060a0016020604051602081039080840390855afa15801561112e573d6000803e3d6000fd5b5050604051601f1901519150506001600160a01b0381166111575760006001925092505061115e565b9150600090505b94509492505050565b60606103b66001600160a01b03831660145b6060600061118883600261181b565b611193906002611832565b67ffffffffffffffff8111156111ab576111ab611362565b6040519080825280601f01601f1916602001820160405280156111d5576020820181803683370190505b509050600360fc1b816000815181106111f0576111f0611845565b60200101906001600160f81b031916908160001a905350600f60fb1b8160018151811061121f5761121f611845565b60200101906001600160f81b031916908160001a905350600061124384600261181b565b61124e906001611832565b90505b60018111156112c6576f181899199a1a9b1b9c1cb0b131b232b360811b85600f166010811061128257611282611845565b1a60f81b82828151811061129857611298611845565b60200101906001600160f81b031916908160001a90535060049490941c936112bf8161185b565b9050611251565b5083156113155760405162461bcd60e51b815260206004820181905260248201527f537472696e67733a20686578206c656e67746820696e73756666696369656e7460448201526064016104a3565b9392505050565b60006020828403121561132e57600080fd5b81356001600160e01b03198116811461131557600080fd5b80356001600160a01b038116811461135d57600080fd5b919050565b634e487b7160e01b600052604160045260246000fd5b600067ffffffffffffffff8084111561139357611393611362565b604051601f8501601f19908116603f011681019082821181831017156113bb576113bb611362565b816040528093508581528686860111156113d457600080fd5b858560208301376000602087830101525050509392505050565b6000806000806080858703121561140457600080fd5b61140d85611346565b93506020850135925060408501359150606085013567ffffffffffffffff81111561143757600080fd5b8501601f8101871361144857600080fd5b61145787823560208401611378565b91505092959194509250565b60006020828403121561147557600080fd5b5035919050565b6000806040838503121561148f57600080fd5b8235915061149f60208401611346565b90509250929050565b600080604083850312156114bb57600080fd5b6114c483611346565b946020939093013593505050565b600080600080608085870312156114e857600080fd5b843567ffffffffffffffff8111156114ff57600080fd5b8501601f8101871361151057600080fd5b61151f87823560208401611378565b97602087013597506040870135966060013595509350505050565b60005b8381101561155557818101518382015260200161153d565b50506000910152565b6000815180845261157681602086016020860161153a565b601f01601f19169290920160200192915050565b60c08152600061159d60c083018961155e565b60208301979097525060408101949094529115156060840152608083015260a090910152919050565b6000602082840312156115d857600080fd5b61131582611346565b634e487b7160e01b600052601160045260246000fd5b600060018201611609576116096115e1565b5060010190565b600181811c9082168061162457607f821691505b60208210810361164457634e487b7160e01b600052602260045260246000fd5b50919050565b601f82111561077157600081815260208120601f850160051c810160208610156116715750805b601f850160051c820191505b818110156116905782815560010161167d565b505050505050565b815167ffffffffffffffff8111156116b2576116b2611362565b6116c6816116c08454611610565b8461164a565b602080601f8311600181146116fb57600084156116e35750858301515b600019600386901b1c1916600185901b178555611690565b600085815260208120601f198616915b8281101561172a5788860151825594840194600190910190840161170b565b50858210156117485787850151600019600388901b60f8161c191681555b5050505050600190811b01905550565b60608152600061176b606083018661155e565b60208301949094525060400152919050565b634e487b7160e01b600052602160045260246000fd5b7f416363657373436f6e74726f6c3a206163636f756e74200000000000000000008152600083516117cb81601785016020880161153a565b7001034b99036b4b9b9b4b733903937b6329607d1b60179184019182015283516117fc81602884016020880161153a565b01602801949350505050565b602081526000611315602083018461155e565b80820281158282048414176103b6576103b66115e1565b808201808211156103b6576103b66115e1565b634e487b7160e01b600052603260045260246000fd5b60008161186a5761186a6115e1565b50600019019056fea264697066735822122075eb03d895af7b47f0b567c527955d100e36c7358589a55a46a114d3850d846464736f6c63430008140033",
  "linkReferences": {},
  "deployedLinkReferences": {}
}