{
  "_format": "hh-sol-artifact-1",
  "contractName": "VoteRightToken",
  "sourceName": "contracts/VoteRightToken.sol",
  "abi": [
    {
      "inputs": [
        {
          "internalType": "uint256",
          "name": "initialSupply",
          "type": "uint256"
        },
        {
          "internalType": "uint256",
          "name": "maxTokenSupply",
          "type": "uint256"
        }
      ],
      "stateMutability": "nonpayable",
      "type": "constructor"
    },
    {
      "anonymous": false,
      "inputs": [
        {
          "indexed": true,
          "internalType": "address",
          "name": "owner",
          "type": "address"
        },
        {
          "indexed": true,
          "internalType": "address",
          "name": "spender",
          "type": "address"
        },
        {
          "indexed": false,
          "internalType": "uint256",
          "name": "value",
          "type": "uint256"
        }
      ],
      "name": "Approval",
      "type": "event"
    },
    {
      "anonymous": false,
      "inputs": [
        {
          "indexed": true,
          "internalType": "address",
          "name": "to",
          "type": "address"
        },
        {
          "indexed": false,
          "internalType": "uint256",
          "name": "amount",
          "type": "uint256"
        },
        {
          "indexed": false,
          "internalType": "string",
          "name": "reason",
          "type": "string"
        }
      ],
      "name": "RewardDistributed",
      "type": "event"
    },
    {
      "anonymous": false,
      "inputs": [
        {
          "indexed": true,
          "internalType": "bytes32",
          "name": "role",
          "type": "bytes32"
        },
        {
          "indexed": true,
          "internalType": "bytes32",
          "name": "previousAdminRole",
          "type": "bytes32"
        },
        {
          "indexed": true,
          "internalType": "bytes32",
          "name": "newAdminRole",
          "type": "bytes32"
        }
      ],
      "name": "RoleAdminChanged",
      "type": "event"
    },
    {
      "anonymous": false,
      "inputs": [
        {
          "indexed": true,
          "internalType": "bytes32",
          "name": "role",
          "type": "bytes32"
        },
        {
          "indexed": true,
          "internalType": "address",
          "name": "account",
          "type": "address"
        },
        {
          "indexed": true,
          "internalType": "address",
          "name": "sender",
          "type": "address"
        }
      ],
      "name": "RoleGranted",
      "type": "event"
    },
    {
      "anonymous": false,
      "inputs": [
        {
          "indexed": true,
          "internalType": "bytes32",
          "name": "role",
          "type": "bytes32"
        },
        {
          "indexed": true,
          "internalType": "address",
          "name": "account",
          "type": "address"
        },
        {
          "indexed": true,
          "internalType": "address",
          "name": "sender",
          "type": "address"
        }
      ],
      "name": "RoleRevoked",
      "type": "event"
    },
    {
      "anonymous": false,
      "inputs": [
        {
          "indexed": true,
          "internalType": "address",
          "name": "from",
          "type": "address"
        },
        {
          "indexed": true,
          "internalType": "address",
          "name": "to",
          "type": "address"
        },
        {
          "indexed": false,
          "internalType": "uint256",
          "name": "value",
          "type": "uint256"
        }
      ],
      "name": "Transfer",
      "type": "event"
    },
    {
      "inputs": [],
      "name": "DEFAULT_ADMIN_ROLE",
      "outputs": [
        {
          "internalType": "bytes32",
          "name": "",
          "type": "bytes32"
        }
      ],
      "stateMutability": "view",
      "type": "function"
    },
    {
      "inputs": [],
      "name": "GOVERNANCE_ROLE",
      "outputs": [
        {
          "internalType": "bytes32",
          "name": "",
          "type": "bytes32"
        }
      ],
      "stateMutability": "view",
      "type": "function"
    },
    {
      "inputs": [],
      "name": "MINTER_ROLE",
      "outputs": [
        {
          "internalType": "bytes32",
          "name": "",
          "type": "bytes32"
        }
      ],
      "stateMutability": "view",
      "type": "function"
    },
    {
      "inputs": [
        {
          "internalType": "address",
          "name": "owner",
          "type": "address"
        },
        {
          "internalType": "address",
          "name": "spender",
          "type": "address"
        }
      ],
      "name": "allowance",
      "outputs": [
        {
          "internalType": "uint256",
          "name": "",
          "type": "uint256"
        }
      ],
      "stateMutability": "view",
      "type": "function"
    },
    {
      "inputs": [
        {
          "internalType": "address",
          "name": "spender",
          "type": "address"
        },
        {
          "internalType": "uint256",
          "name": "amount",
          "type": "uint256"
        }
      ],
      "name": "approve",
      "outputs": [
        {
          "internalType": "bool",
          "name": "",
          "type": "bool"
        }
      ],
      "stateMutability": "nonpayable",
      "type": "function"
    },
    {
      "inputs": [
        {
          "internalType": "address",
          "name": "account",
          "type": "address"
        }
      ],
      "name": "balanceOf",
      "outputs": [
        {
          "internalType": "uint256",
          "name": "",
          "type": "uint256"
        }
      ],
      "stateMutability": "view",
      "type": "function"
    },
    {
      "inputs": [
        {
          "internalType": "uint256",
          "name": "amount",
          "type": "uint256"
        }
      ],
      "name": "burn",
      "outputs": [],
      "stateMutability": "nonpayable",
      "type": "function"
    },
    {
      "inputs": [
        {
          "internalType": "address",
          "name": "account",
          "type": "address"
        },
        {
          "internalType": "uint256",
          "name": "amount",
          "type": "uint256"
        }
      ],
      "name": "burnFrom",
      "outputs": [],
      "stateMutability": "nonpayable",
      "type": "function"
    },
    {
      "inputs": [],
      "name": "decimals",
      "outputs": [
        {
          "internalType": "uint8",
          "name": "",
          "type": "uint8"
        }
      ],
      "stateMutability": "view",
      "type": "function"
    },
    {
      "inputs": [
        {
          "internalType": "address",
          "name": "spender",
          "type": "address"
        },
        {
          "internalType": "uint256",
          "name": "subtractedValue",
          "type": "uint256"
        }
      ],
      "name": "decreaseAllowance",
      "outputs": [
        {
          "internalType": "bool",
          "name": "",
          "type": "bool"
        }
      ],
      "stateMutability": "nonpayable",
      "type": "function"
    },
    {
      "inputs": [
        {
          "internalType": "bytes32",
          "name": "role",
          "type": "bytes32"
        }
      ],
      "name": "getRoleAdmin",
      "outputs": [
        {
          "internalType": "bytes32",
          "name": "",
          "type": "bytes32"
        }
      ],
      "stateMutability": "view",
      "type": "function"
    },
    {
      "inputs": [
        {
          "internalType": "bytes32",
          "name": "role",
          "type": "bytes32"
        },
        {
          "internalType": "address",
          "name": "account",
          "type": "address"
        }
      ],
      "name": "grantRole",
      "outputs": [],
      "stateMutability": "nonpayable",
      "type": "function"
    },
    {
      "inputs": [
        {
          "internalType": "bytes32",
          "name": "role",
          "type": "bytes32"
        },
        {
          "internalType": "address",
          "name": "account",
          "type": "address"
        }
      ],
      "name": "hasRole",
      "outputs": [
        {
          "internalType": "bool",
          "name": "",
          "type": "bool"
        }
      ],
      "stateMutability": "view",
      "type": "function"
    },
    {
      "inputs": [
        {
          "internalType": "address",
          "name": "spender",
          "type": "address"
        },
        {
          "internalType": "uint256",
          "name": "addedValue",
          "type": "uint256"
        }
      ],
      "name": "increaseAllowance",
      "outputs": [
        {
          "internalType": "bool",
          "name": "",
          "type": "bool"
        }
      ],
      "stateMutability": "nonpayable",
      "type": "function"
    },
    {
      "inputs": [],
      "name": "maxSupply",
      "outputs": [
        {
          "internalType": "uint256",
          "name": "",
          "type": "uint256"
        }
      ],
      "stateMutability": "view",
      "type": "function"
    },
    {
      "inputs": [
        {
          "internalType": "address",
          "name": "to",
          "type": "address"
        },
        {
          "internalType": "uint256",
          "name": "amount",
          "type": "uint256"
        },
        {
          "internalType": "string",
          "name": "reason",
          "type": "string"
        }
      ],
      "name": "mintReward",
      "outputs": [],
      "stateMutability": "nonpayable",
      "type": "function"
    },
    {
      "inputs": [],
      "name": "name",
      "outputs": [
        {
          "internalType": "string",
          "name": "",
          "type": "string"
        }
      ],
      "stateMutability": "view",
      "type": "function"
    },
    {
      "inputs": [
        {
          "internalType": "bytes32",
          "name": "role",
          "type": "bytes32"
        },
        {
          "internalType": "address",
          "name": "account",
          "type": "address"
        }
      ],
      "name": "renounceRole",
      "outputs": [],
      "stateMutability": "nonpayable",
      "type": "function"
    },
    {
      "inputs": [
        {
          "internalType": "bytes32",
          "name": "role",
          "type": "bytes32"
        },
        {
          "internalType": "address",
          "name": "account",
          "type": "address"
        }
      ],
      "name": "revokeRole",
      "outputs": [],
      "stateMutability": "nonpayable",
      "type": "function"
    },
    {
      "inputs": [
        {
          "internalType": "bytes4",
          "name": "interfaceId",
          "type": "bytes4"
        }
      ],
      "name": "supportsInterface",
      "outputs": [
        {
          "internalType": "bool",
          "name": "",
          "type": "bool"
        }
      ],
      "stateMutability": "view",
      "type": "function"
    },
    {
      "inputs": [],
      "name": "symbol",
      "outputs": [
        {
          "internalType": "string",
          "name": "",
          "type": "string"
        }
      ],
      "stateMutability": "view",
      "type": "function"
    },
    {
      "inputs": [],
      "name": "totalSupply",
      "outputs": [
        {
          "internalType": "uint256",
          "name": "",
          "type": "uint256"
        }
      ],
      "stateMutability": "view",
      "type": "function"
    },
    {
      "inputs": [
        {
          "internalType": "address",
          "name": "to",
          "type": "address"
        },
        {
          "internalType": "uint256",
          "name": "amount",
          "type": "uint256"
        }
      ],
      "name": "transfer",
      "outputs": [
        {
          "internalType": "bool",
          "name": "",
          "type": "bool"
        }
      ],
      "stateMutability": "nonpayable",
      "type": "function"
    },
    {
      "inputs": [
        {
          "internalType": "address",
          "name": "from",
          "type": "address"
        },
        {
          "internalType": "address",
          "name": "to",
          "type": "address"
        },
        {
          "internalType": "uint256",
          "name": "amount",
          "type": "uint256"
        }
      ],
      "name": "transferFrom",
      "outputs": [
        {
          "internalType": "bool",
          "name": "",
          "type": "bool"
        }
      ],
      "stateMutability": "nonpayable",
      "type": "function"
    }
  ],
  "bytecode": "0x60a06040523480156200001157600080fd5b50604051620018aa380380620018aa83398101604081905262000034916200031d565b6040518060400160405280600f81526020016e2b37ba32a934b3b43a102a37b5b2b760891b81525060405180604001604052806004815260200163564f544560e01b81525081600390816200008a9190620003e6565b506004620000998282620003e6565b50505081811015620000fe5760405162461bcd60e51b8152602060048201526024808201527f4d617820737570706c79206d757374206265203e3d20696e697469616c20737560448201526370706c7960e01b60648201526084015b60405180910390fd5b6200010b6000336200017c565b620001377f9f2df0fed2c77648de5860a4cc508cd0818c85b8b8a1ab4ceeef8d981c8956a6336200017c565b620001637f71840dc4906352362b0cdaf79870196c8e42acafade72d5d5a6d59291253ceb1336200017c565b608081905262000174338362000207565b5050620004d4565b620001888282620002d8565b620002035760008281526005602090815260408083206001600160a01b03851684529091529020805460ff19166001179055620001c23390565b6001600160a01b0316816001600160a01b0316837f2f8788117e7eff1d82e926ec794901d17c78024a50270940304540a733656f0d60405160405180910390a45b5050565b6001600160a01b0382166200025f5760405162461bcd60e51b815260206004820152601f60248201527f45524332303a206d696e7420746f20746865207a65726f2061646472657373006044820152606401620000f5565b6200026d6000838362000305565b8060026000828254620002819190620004b2565b90915550506001600160a01b038216600081815260208181526040808320805486019055518481527fddf252ad1be2c89b69c2b068fc378daa952ba7f163c4a11628f55a4df523b3ef910160405180910390a35050565b60008281526005602090815260408083206001600160a01b038516845290915290205460ff165b92915050565b620003188383836001600160e01b038416565b505050565b600080604083850312156200033157600080fd5b505080516020909101519092909150565b634e487b7160e01b600052604160045260246000fd5b600181811c908216806200036d57607f821691505b6020821081036200038e57634e487b7160e01b600052602260045260246000fd5b50919050565b601f8211156200031857600081815260208120601f850160051c81016020861015620003bd5750805b601f850160051c820191505b81811015620003de57828155600101620003c9565b505050505050565b81516001600160401b0381111562000402576200040262000342565b6200041a8162000413845462000358565b8462000394565b602080601f831160018114620004525760008415620004395750858301515b600019600386901b1c1916600185901b178555620003de565b600085815260208120601f198616915b82811015620004835788860151825594840194600190910190840162000462565b5085821015620004a25787850151600019600388901b60f8161c191681555b5050505050600190811b01905550565b80820180821115620002ff57634e487b7160e01b600052601160045260246000fd5b6080516113b3620004f76000396000818161032901526105a701526113b36000f3fe608060405234801561001057600080fd5b50600436106101585760003560e01c806379cc6790116100c3578063a9059cbb1161007c578063a9059cbb146102d7578063d5391393146102ea578063d547741f14610311578063d5abeb0114610324578063dd62ed3e1461034b578063f36c8f5c1461035e57600080fd5b806379cc67901461027b578063891197a81461028e57806391d14854146102a157806395d89b41146102b4578063a217fddf146102bc578063a457c2d7146102c457600080fd5b80632f2ff15d116101155780632f2ff15d146101f5578063313ce5671461020a57806336568abe14610219578063395093511461022c57806342966c681461023f57806370a082311461025257600080fd5b806301ffc9a71461015d57806306fdde0314610185578063095ea7b31461019a57806318160ddd146101ad57806323b872dd146101bf578063248a9ca3146101d2575b600080fd5b61017061016b366004610fc6565b610385565b60405190151581526020015b60405180910390f35b61018d6103bc565b60405161017c9190611040565b6101706101a836600461106f565b61044e565b6002545b60405190815260200161017c565b6101706101cd366004611099565b610466565b6101b16101e03660046110d5565b60009081526005602052604090206001015490565b6102086102033660046110ee565b61048a565b005b6040516012815260200161017c565b6102086102273660046110ee565b6104b4565b61017061023a36600461106f565b610537565b61020861024d3660046110d5565b610559565b6101b161026036600461111a565b6001600160a01b031660009081526020819052604090205490565b61020861028936600461106f565b610566565b61020861029c36600461114b565b61057b565b6101706102af3660046110ee565b61067b565b61018d6106a6565b6101b1600081565b6101706102d236600461106f565b6106b5565b6101706102e536600461106f565b610730565b6101b17f9f2df0fed2c77648de5860a4cc508cd0818c85b8b8a1ab4ceeef8d981c8956a681565b61020861031f3660046110ee565b61073e565b6101b17f000000000000000000000000000000000000000000000000000000000000000081565b6101b1610359366004611216565b610763565b6101b17f71840dc4906352362b0cdaf79870196c8e42acafade72d5d5a6d59291253ceb181565b60006001600160e01b03198216637965db0b60e01b14806103b657506301ffc9a760e01b6001600160e01b03198316145b92915050565b6060600380546103cb90611240565b80601f01602080910402602001604051908101604052809291908181526020018280546103f790611240565b80156104445780601f1061041957610100808354040283529160200191610444565b820191906000526020600020905b81548152906001019060200180831161042757829003601f168201915b5050505050905090565b60003361045c81858561078e565b5060019392505050565b6000336104748582856108b2565b61047f85858561092c565b506001949350505050565b6000828152600560205260409020600101546104a581610ad0565b6104af8383610ada565b505050565b6001600160a01b03811633146105295760405162461bcd60e51b815260206004820152602f60248201527f416363657373436f6e74726f6c3a2063616e206f6e6c792072656e6f756e636560448201526e103937b632b9903337b91039b2b63360891b60648201526084015b60405180910390fd5b6105338282610b60565b5050565b60003361045c81858561054a8383610763565b6105549190611290565b61078e565b6105633382610bc7565b50565b6105718233836108b2565b6105338282610bc7565b7f9f2df0fed2c77648de5860a4cc508cd0818c85b8b8a1ab4ceeef8d981c8956a66105a581610ad0565b7f0000000000000000000000000000000000000000000000000000000000000000836105d060025490565b6105da9190611290565b11156106285760405162461bcd60e51b815260206004820152601860248201527f45786365656473206d617820746f6b656e20737570706c7900000000000000006044820152606401610520565b6106328484610cf9565b836001600160a01b03167f49649141d16971a88c3cfdd73fec34babb1cf163cf8b804c8f537a023c6ce506848460405161066d9291906112a3565b60405180910390a250505050565b60009182526005602090815260408084206001600160a01b0393909316845291905290205460ff1690565b6060600480546103cb90611240565b600033816106c38286610763565b9050838110156107235760405162461bcd60e51b815260206004820152602560248201527f45524332303a2064656372656173656420616c6c6f77616e63652062656c6f77604482015264207a65726f60d81b6064820152608401610520565b61047f828686840361078e565b60003361045c81858561092c565b60008281526005602052604090206001015461075981610ad0565b6104af8383610b60565b6001600160a01b03918216600090815260016020908152604080832093909416825291909152205490565b6001600160a01b0383166107f05760405162461bcd60e51b8152602060048201526024808201527f45524332303a20617070726f76652066726f6d20746865207a65726f206164646044820152637265737360e01b6064820152608401610520565b6001600160a01b0382166108515760405162461bcd60e51b815260206004820152602260248201527f45524332303a20617070726f766520746f20746865207a65726f206164647265604482015261737360f01b6064820152608401610520565b6001600160a01b0383811660008181526001602090815260408083209487168084529482529182902085905590518481527f8c5be1e5ebec7d5bd14f71427d1e84f3dd0314c0f7b2291e5b200ac8c7c3b925910160405180910390a3505050565b60006108be8484610763565b9050600019811461092657818110156109195760405162461bcd60e51b815260206004820152601d60248201527f45524332303a20696e73756666696369656e7420616c6c6f77616e63650000006044820152606401610520565b610926848484840361078e565b50505050565b6001600160a01b0383166109905760405162461bcd60e51b815260206004820152602560248201527f45524332303a207472616e736665722066726f6d20746865207a65726f206164604482015264647265737360d81b6064820152608401610520565b6001600160a01b0382166109f25760405162461bcd60e51b815260206004820152602360248201527f45524332303a207472616e7366657220746f20746865207a65726f206164647260448201526265737360e81b6064820152608401610520565b6001600160a01b03831660009081526020819052604090205481811015610a6a5760405162461bcd60e51b815260206004820152602660248201527f45524332303a207472616e7366657220616d6f756e7420657863656564732062604482015265616c616e636560d01b6064820152608401610520565b6001600160a01b03848116600081815260208181526040808320878703905593871680835291849020805487019055925185815290927fddf252ad1be2c89b69c2b068fc378daa952ba7f163c4a11628f55a4df523b3ef910160405180910390a3610926565b6105638133610db8565b610ae4828261067b565b6105335760008281526005602090815260408083206001600160a01b03851684529091529020805460ff19166001179055610b1c3390565b6001600160a01b0316816001600160a01b0316837f2f8788117e7eff1d82e926ec794901d17c78024a50270940304540a733656f0d60405160405180910390a45050565b610b6a828261067b565b156105335760008281526005602090815260408083206001600160a01b0385168085529252808320805460ff1916905551339285917ff6391f5c32d9c69d2a47ea670b442974b53935d1edc7fd64eb21e047a839171b9190a45050565b6001600160a01b038216610c275760405162461bcd60e51b815260206004820152602160248201527f45524332303a206275726e2066726f6d20746865207a65726f206164647265736044820152607360f81b6064820152608401610520565b6001600160a01b03821660009081526020819052604090205481811015610c9b5760405162461bcd60e51b815260206004820152602260248201527f45524332303a206275726e20616d6f756e7420657863656564732062616c616e604482015261636560f01b6064820152608401610520565b6001600160a01b0383166000818152602081815260408083208686039055600280548790039055518581529192917fddf252ad1be2c89b69c2b068fc378daa952ba7f163c4a11628f55a4df523b3ef910160405180910390a3505050565b6001600160a01b038216610d4f5760405162461bcd60e51b815260206004820152601f60248201527f45524332303a206d696e7420746f20746865207a65726f2061646472657373006044820152606401610520565b8060026000828254610d619190611290565b90915550506001600160a01b038216600081815260208181526040808320805486019055518481527fddf252ad1be2c89b69c2b068fc378daa952ba7f163c4a11628f55a4df523b3ef910160405180910390a35050565b610dc2828261067b565b61053357610dcf81610e11565b610dda836020610e23565b604051602001610deb9291906112c4565b60408051601f198184030181529082905262461bcd60e51b825261052091600401611040565b60606103b66001600160a01b03831660145b60606000610e32836002611339565b610e3d906002611290565b67ffffffffffffffff811115610e5557610e55611135565b6040519080825280601f01601f191660200182016040528015610e7f576020820181803683370190505b509050600360fc1b81600081518110610e9a57610e9a611350565b60200101906001600160f81b031916908160001a905350600f60fb1b81600181518110610ec957610ec9611350565b60200101906001600160f81b031916908160001a9053506000610eed846002611339565b610ef8906001611290565b90505b6001811115610f70576f181899199a1a9b1b9c1cb0b131b232b360811b85600f1660108110610f2c57610f2c611350565b1a60f81b828281518110610f4257610f42611350565b60200101906001600160f81b031916908160001a90535060049490941c93610f6981611366565b9050610efb565b508315610fbf5760405162461bcd60e51b815260206004820181905260248201527f537472696e67733a20686578206c656e67746820696e73756666696369656e746044820152606401610520565b9392505050565b600060208284031215610fd857600080fd5b81356001600160e01b031981168114610fbf57600080fd5b60005b8381101561100b578181015183820152602001610ff3565b50506000910152565b6000815180845261102c816020860160208601610ff0565b601f01601f19169290920160200192915050565b602081526000610fbf6020830184611014565b80356001600160a01b038116811461106a57600080fd5b919050565b6000806040838503121561108257600080fd5b61108b83611053565b946020939093013593505050565b6000806000606084860312156110ae57600080fd5b6110b784611053565b92506110c560208501611053565b9150604084013590509250925092565b6000602082840312156110e757600080fd5b5035919050565b6000806040838503121561110157600080fd5b8235915061111160208401611053565b90509250929050565b60006020828403121561112c57600080fd5b610fbf82611053565b634e487b7160e01b600052604160045260246000fd5b60008060006060848603121561116057600080fd5b61116984611053565b925060208401359150604084013567ffffffffffffffff8082111561118d57600080fd5b818601915086601f8301126111a157600080fd5b8135818111156111b3576111b3611135565b604051601f8201601f19908116603f011681019083821181831017156111db576111db611135565b816040528281528960208487010111156111f457600080fd5b8260208601602083013760006020848301015280955050505050509250925092565b6000806040838503121561122957600080fd5b61123283611053565b915061111160208401611053565b600181811c9082168061125457607f821691505b60208210810361127457634e487b7160e01b600052602260045260246000fd5b50919050565b634e487b7160e01b600052601160045260246000fd5b808201808211156103b6576103b661127a565b8281526040602082015260006112bc6040830184611014565b949350505050565b7f416363657373436f6e74726f6c3a206163636f756e74200000000000000000008152600083516112fc816017850160208801610ff0565b7001034b99036b4b9b9b4b733903937b6329607d1b601791840191820152835161132d816028840160208801610ff0565b01602801949350505050565b80820281158282048414176103b6576103b661127a565b634e487b7160e01b600052603260045260246000fd5b6000816113755761137561127a565b50600019019056fea26469706673582212206dfead62c96291981898d6620622db8f2d7c826729030e90573a2a1767f3ea9964736f6c63430008140033",
  "linkReferences": {},
  "deployedLinkReferences": {}
}